{
    "abi": [
        {
            "type": "constructor",
            "inputs": [
                {
                    "name": "_owner",
                    "type": "address",
                    "internalType": "address"
                }
            ],
            "stateMutability": "nonpayable"
        },
        {
            "type": "receive",
            "stateMutability": "payable"
        },
        {
            "type": "function",
            "name": "batch",
            "inputs": [
                {
                    "name": "targets",
                    "type": "address[]",
                    "internalType": "address[]"
                },
                {
                    "name": "values",
                    "type": "uint256[]",
                    "internalType": "uint256[]"
                },
                {
                    "name": "calldatas",
                    "type": "bytes[]",
                    "internalType": "bytes[]"
                }
            ],
            "outputs": [
                {
                    "name": "results",
                    "type": "bytes[]",
                    "internalType": "bytes[]"
                }
            ],
            "stateMutability": "nonpayable"
        },
        {
            "type": "function",
            "name": "exec",
            "inputs": [
                {
                    "name": "to",
                    "type": "address",
                    "internalType": "address"
                },
                {
                    "name": "value",
                    "type": "uint256",
                    "internalType": "uint256"
                },
                {
                    "name": "data",
                    "type": "bytes",
                    "internalType": "bytes"
                }
            ],
            "outputs": [
                {
                    "name": "",
                    "type": "bytes",
                    "internalType": "bytes"
                }
            ],
            "stateMutability": "nonpayable"
        },
        {
            "type": "function",
            "name": "owner",
            "inputs": [],
            "outputs": [
                {
                    "name": "",
                    "type": "address",
                    "internalType": "address"
                }
            ],
            "stateMutability": "view"
        }
    ],
    "bytecode": {
        "object": "0x60a060405234801561000f575f80fd5b50604051610eb1380380610eb1833981810160405281019061003191906100c9565b8073ffffffffffffffffffffffffffffffffffffffff1660808173ffffffffffffffffffffffffffffffffffffffff1681525050506100f4565b5f80fd5b5f73ffffffffffffffffffffffffffffffffffffffff82169050919050565b5f6100988261006f565b9050919050565b6100a88161008e565b81146100b2575f80fd5b50565b5f815190506100c38161009f565b92915050565b5f602082840312156100de576100dd61006b565b5b5f6100eb848285016100b5565b91505092915050565b608051610d986101195f395f818160e80152818161023101526102570152610d985ff3fe608060405260043610610037575f3560e01c80630565bb67146100425780638da5cb5b1461007e578063de24dce2146100a85761003e565b3661003e57005b5f80fd5b34801561004d575f80fd5b50610068600480360381019061006391906105e2565b6100e4565b60405161007591906106dd565b60405180910390f35b348015610089575f80fd5b5061009261022f565b60405161009f919061070c565b60405180910390f35b3480156100b3575f80fd5b506100ce60048036038101906100c99190610824565b610253565b6040516100db91906109d7565b60405180910390f35b60607f000000000000000000000000000000000000000000000000000000000000000073ffffffffffffffffffffffffffffffffffffffff163373ffffffffffffffffffffffffffffffffffffffff1614610174576040517f08c379a000000000000000000000000000000000000000000000000000000000815260040161016b90610a51565b60405180910390fd5b5f808673ffffffffffffffffffffffffffffffffffffffff1686868660405161019e929190610aab565b5f6040518083038185875af1925050503d805f81146101d8576040519150601f19603f3d011682016040523d82523d5f602084013e6101dd565b606091505b509150915081610222576040517f08c379a000000000000000000000000000000000000000000000000000000000815260040161021990610b0d565b60405180910390fd5b8092505050949350505050565b7f000000000000000000000000000000000000000000000000000000000000000081565b60607f000000000000000000000000000000000000000000000000000000000000000073ffffffffffffffffffffffffffffffffffffffff163373ffffffffffffffffffffffffffffffffffffffff16146102e3576040517f08c379a00000000000000000000000000000000000000000000000000000000081526004016102da90610a51565b60405180910390fd5b84849050878790501480156102fd57508282905085859050145b61033c576040517f08c379a000000000000000000000000000000000000000000000000000000000815260040161033390610b75565b60405180910390fd5b8686905067ffffffffffffffff81111561035957610358610b93565b5b60405190808252806020026020018201604052801561038c57816020015b60608152602001906001900390816103775790505b5090505f5b878790508110156104e1575f808989848181106103b1576103b0610bc0565b5b90506020020160208101906103c69190610bed565b73ffffffffffffffffffffffffffffffffffffffff168888858181106103ef576103ee610bc0565b5b9050602002013587878681811061040957610408610bc0565b5b905060200281019061041b9190610c24565b604051610429929190610aab565b5f6040518083038185875af1925050503d805f8114610463576040519150601f19603f3d011682016040523d82523d5f602084013e610468565b606091505b5091509150816104ad576040517f08c379a00000000000000000000000000000000000000000000000000000000081526004016104a490610cd0565b60405180910390fd5b808484815181106104c1576104c0610bc0565b5b6020026020010181905250505080806104d990610d1b565b915050610391565b509695505050505050565b5f80fd5b5f80fd5b5f73ffffffffffffffffffffffffffffffffffffffff82169050919050565b5f61051d826104f4565b9050919050565b61052d81610513565b8114610537575f80fd5b50565b5f8135905061054881610524565b92915050565b5f819050919050565b6105608161054e565b811461056a575f80fd5b50565b5f8135905061057b81610557565b92915050565b5f80fd5b5f80fd5b5f80fd5b5f8083601f8401126105a2576105a1610581565b5b8235905067ffffffffffffffff8111156105bf576105be610585565b5b6020830191508360018202830111156105db576105da610589565b5b9250929050565b5f805f80606085870312156105fa576105f96104ec565b5b5f6106078782880161053a565b94505060206106188782880161056d565b935050604085013567ffffffffffffffff811115610639576106386104f0565b5b6106458782880161058d565b925092505092959194509250565b5f81519050919050565b5f82825260208201905092915050565b5f5b8381101561068a57808201518184015260208101905061066f565b5f8484015250505050565b5f601f19601f8301169050919050565b5f6106af82610653565b6106b9818561065d565b93506106c981856020860161066d565b6106d281610695565b840191505092915050565b5f6020820190508181035f8301526106f581846106a5565b905092915050565b61070681610513565b82525050565b5f60208201905061071f5f8301846106fd565b92915050565b5f8083601f84011261073a57610739610581565b5b8235905067ffffffffffffffff81111561075757610756610585565b5b60208301915083602082028301111561077357610772610589565b5b9250929050565b5f8083601f84011261078f5761078e610581565b5b8235905067ffffffffffffffff8111156107ac576107ab610585565b5b6020830191508360208202830111156107c8576107c7610589565b5b9250929050565b5f8083601f8401126107e4576107e3610581565b5b8235905067ffffffffffffffff81111561080157610800610585565b5b60208301915083602082028301111561081d5761081c610589565b5b9250929050565b5f805f805f806060878903121561083e5761083d6104ec565b5b5f87013567ffffffffffffffff81111561085b5761085a6104f0565b5b61086789828a01610725565b9650965050602087013567ffffffffffffffff81111561088a576108896104f0565b5b61089689828a0161077a565b9450945050604087013567ffffffffffffffff8111156108b9576108b86104f0565b5b6108c589828a016107cf565b92509250509295509295509295565b5f81519050919050565b5f82825260208201905092915050565b5f819050602082019050919050565b5f82825260208201905092915050565b5f61091782610653565b61092181856108fd565b935061093181856020860161066d565b61093a81610695565b840191505092915050565b5f610950838361090d565b905092915050565b5f602082019050919050565b5f61096e826108d4565b61097881856108de565b93508360208202850161098a856108ee565b805f5b858110156109c557848403895281516109a68582610945565b94506109b183610958565b925060208a0199505060018101905061098d565b50829750879550505050505092915050565b5f6020820190508181035f8301526109ef8184610964565b905092915050565b5f82825260208201905092915050565b7f4e6f74206f776e657200000000000000000000000000000000000000000000005f82015250565b5f610a3b6009836109f7565b9150610a4682610a07565b602082019050919050565b5f6020820190508181035f830152610a6881610a2f565b9050919050565b5f81905092915050565b828183375f83830152505050565b5f610a928385610a6f565b9350610a9f838584610a79565b82840190509392505050565b5f610ab7828486610a87565b91508190509392505050565b7f43616c6c206661696c65640000000000000000000000000000000000000000005f82015250565b5f610af7600b836109f7565b9150610b0282610ac3565b602082019050919050565b5f6020820190508181035f830152610b2481610aeb565b9050919050565b7f4c656e677468206d69736d6174636800000000000000000000000000000000005f82015250565b5f610b5f600f836109f7565b9150610b6a82610b2b565b602082019050919050565b5f6020820190508181035f830152610b8c81610b53565b9050919050565b7f4e487b71000000000000000000000000000000000000000000000000000000005f52604160045260245ffd5b7f4e487b71000000000000000000000000000000000000000000000000000000005f52603260045260245ffd5b5f60208284031215610c0257610c016104ec565b5b5f610c0f8482850161053a565b91505092915050565b5f80fd5b5f80fd5b5f80fd5b5f8083356001602003843603038112610c4057610c3f610c18565b5b80840192508235915067ffffffffffffffff821115610c6257610c61610c1c565b5b602083019250600182023603831315610c7e57610c7d610c20565b5b509250929050565b7f42617463682063616c6c206661696c65640000000000000000000000000000005f82015250565b5f610cba6011836109f7565b9150610cc582610c86565b602082019050919050565b5f6020820190508181035f830152610ce781610cae565b9050919050565b7f4e487b71000000000000000000000000000000000000000000000000000000005f52601160045260245ffd5b5f610d258261054e565b91507fffffffffffffffffffffffffffffffffffffffffffffffffffffffffffffffff8203610d5757610d56610cee565b5b60018201905091905056fea2646970667358221220d622a649660ccc9cf70cc9ec12d135d72a85c196449abc42890235d43b6a600264736f6c63430008140033",
        "linkReferences": {}
    },
    "methodIdentifiers": {
        "batch(address[],uint256[],bytes[])": "de24dce2",
        "exec(address,uint256,bytes)": "0565bb67",
        "owner()": "8da5cb5b"
    },
    "id": 0
}